S01300004144435F50726F6A6563742E7372656313
S11300000C942A000C943F000C943F000C943F0085
S11300100C943F000C943F000C943F000C943F0060
S11300200C943F000C943F000C943F000C943F0050
S11300300C943F000C943F000C943F000C943F0040
S11300400C943F000C943F000C943F000C943F0030
S11300500C943F0011241FBECFE5D8E0DEBFCDBF16
S113006010E0A0E6B0E0E2E5F5E002C005900D92F4
S1130070A836B107D9F70E949A020C94A7020C94EF
S113008000004423B9F1413009F06BC0813089F09C
S113009028F08230C9F0833011F108952AB381E049
S11300A090E002C0880F991F6A95E2F7822B8ABB01
S11300B0089527B381E090E002C0880F991F6A95E4
S11300C0E2F7822B87BB089524B381E090E002C05D
S11300D0880F991F6A95E2F7822B84BB089521B398
S11300E081E090E002C0880F991F6A95E2F7822BA5
S11300F081BB0895813091F028F08230D9F08330AB
S113010029F108952AB381E090E002C0880F991F75
S11301106A95E2F7809582238ABB089527B381E02C
S113012090E002C0880F991F6A95E2F780958223B8
S113013087BB089524B381E090E002C0880F991F23
S11301406A95E2F78095822384BB089521B381E008
S113015090E002C0880F991F6A95E2F78095822388
S113016081BB08954423B9F1413009F06BC081305B
S113017089F028F08230C9F0833011F108952BB34F
S113018081E090E002C0880F991F6A95E2F7822B04
S11301908BBB089528B381E090E002C0880F991FBB
S11301A06A95E2F7822B88BB089525B381E090E03D
S11301B002C0880F991F6A95E2F7822B85BB0895C8
S11301C022B381E090E002C0880F991F6A95E2F79C
S11301D0822B82BB0895813091F028F08230D9F0CF
S11301E0833029F108952BB381E090E002C0880F99
S11301F0991F6A95E2F7809582238BBB089528B3F3
S113020081E090E002C0880F991F6A95E2F780951B
S1130210822388BB089525B381E090E002C0880F53
S1130220991F6A95E2F78095822385BB089522B3CE
S113023081E090E002C0880F991F6A95E2F78095EB
S1130240822382BB0895CF93C82F40E063E080E00F
S11302500E94B20040E062E080E00E94B200C4FB71
S1130260442740F960E081E00E94B200C5FB4427C6
S113027040F961E081E00E94B200C6FB442740F9E6
S113028062E081E00E94B2004C2F441F4427441FC7
S113029064E081E00E94B20041E062E080E00E94FC
S11302A0B20085E08A95F1F7000040E062E080E06A
S11302B00E94B20095E09A95F1F700004C2F41702E
S11302C060E081E00E94B200C1FB442740F961E094
S11302D081E00E94B200C2FB442740F962E081E061
S11302E00E94B200C3FB442740F964E081E00E940D
S11302F0B20041E062E080E00E94B20085E08A95AD
S1130300F1F7000040E062E080E00E94B20095E076
S11303109A95F1F7000087EC90E00197F1F700C09F
S11303200000CF910895CF93C82F41E063E080E0AF
S11303300E94B20040E062E080E00E94B200C4FB90
S1130340442740F960E081E00E94B200C5FB4427E5
S113035040F961E081E00E94B200C6FB442740F905
S113036062E081E00E94B2004C2F441F4427441FE6
S113037064E081E00E94B20041E062E080E00E941B
S1130380B20085E08A95F1F7000040E062E080E089
S11303900E94B20095E09A95F1F700004C2F41704D
S11303A060E081E00E94B200C1FB442740F961E0B3
S11303B081E00E94B200C2FB442740F962E081E080
S11303C00E94B200C3FB442740F964E081E00E942C
S11303D0B20041E062E080E00E94B20085E08A95CC
S11303E0F1F7000040E062E080E00E94B20095E096
S11303F09A95F1F7000087EC90E00197F1F700C0BF
S11304000000CF9108950F931F93CF93DF938C0136
S1130410C0E0D0E003C00E9493012196F801EC0FE4
S1130420FD1F80818111F7CFDF91CF911F910F9133
S1130430089581E00E9423018FE39CE90197F1F77D
S113044000C000000895811106C0809160008B7F78
S11304508093600007C0813029F48091600084603B
S113046080936000809160000E94230108958111AF
S113047006C0809160008D7F8093600017C081303A
S113048031F4809160008260809360000FC08230FC
S113049031F48091600081608093600007C08330F4
S11304A029F4809160008E7F8093600080916000C9
S11304B00E94230108958BB38C608BBB8AB38C603C
S11304C08ABB88B3876188BB87B3876187BB41E0F8
S11304D063E080E00E94410041E062E080E00E942D
S11304E0410041E060E081E00E94410041E061E0C0
S11304F081E00E94410041E062E081E00E9441000D
S113050041E064E081E00E94410082E00E94230116
S113051088E20E94230180E00E94370283E00E9467
S1130520370281E00E94230286E00E9423010E9498
S11305301902089587B3806887BB88B3806888BB35
S11305400E945B0281E690E00E940302FFCFF894D0
S1050550FFCFD7
S10B05520849736C616D00009F
S9030000FC
