:100000000C9432000C9447000C9447000C94470069
:100010000C9447000C9447000C9447000C94470044
:100020000C9447000C9447000C9447000C94470034
:100030000C9447000C9447000C9447000C94470024
:100040000C9447000C9447000C9447000C94470014
:100050000C94470061006500680067006E006A004C
:100060006D006C0011241FBECFE5D8E0DEBFCDBF10
:1000700010E0A0E6B0E0E0E0FBE002C005900D92E9
:10008000A23CB107D9F70E944A040C947E050C9457
:1000900000003F983E9A3D98359A309A319A329AAC
:1000A0003398379A0895E82F87B1807E87B98E2FCD
:1000B00090E08830910598F4FC01E65DFF4F0C94C8
:1000C0003C05389839983A980895389A0895389A9E
:1000D000399A0895389A02C0389A399A3A9A089506
:1000E000369A349BFECF24B135B1FC013183208395
:1000F000089541E066E082E00C94330141E066E05F
:1001000082E00E949E0040E066E082E00C943301B1
:1001100081110C94790040E066E082E00C94330198
:100120000E9479002FEF81EE94E0215080409040B2
:10013000E1F700C0000080E00C948800442379F1CE
:10014000413009F05FC0813079F028F08230A9F0A9
:100150008330E1F008952AB381E090E001C0880F78
:100160006A95EAF7822B2CC027B381E090E001C0AA
:10017000880F6A95EAF7822B2EC024B381E090E0C5
:1001800001C0880F6A95EAF7822B30C021B381E065
:1001900090E001C0880F6A95EAF7822B32C0813067
:1001A00089F028F08230C9F0833011F108952AB324
:1001B00081E090E001C0880F6A95EAF7809582237C
:1001C0008ABB089527B381E090E001C0880F6A954B
:1001D000EAF78095822387BB089524B381E090E0FD
:1001E00001C0880F6A95EAF78095822384BB089541
:1001F00021B381E090E001C0880F6A95EAF780950D
:10020000822381BB0895813081F028F08230B9F0DB
:100210008330F9F008952BB381E090E001C0880F9E
:100220006A95EAF7822B8BBB089528B381E090E0B2
:1002300001C0880F6A95EAF7822B88BB089525B321
:1002400081E090E001C0880F6A95EAF7822B85BBB8
:10025000089522B381E090E001C0880F6A95EAF723
:10026000822B82BB0895442379F1413009F05FC0AD
:10027000813079F028F08230A9F08330E1F00895E0
:100280002BB381E090E001C0880F6A95EAF7822BDA
:100290002CC028B381E090E001C0880F6A95EAF78E
:1002A000822B2EC025B381E090E001C0880F6A95B3
:1002B000EAF7822B30C022B381E090E001C0880FC2
:1002C0006A95EAF7822B32C0813089F028F08230BB
:1002D000C9F0833011F108952BB381E090E001C0A3
:1002E000880F6A95EAF7809582238BBB089528B31F
:1002F00081E090E001C0880F6A95EAF7809582233B
:1003000088BB089525B381E090E001C0880F6A950D
:10031000EAF78095822385BB089522B381E090E0BF
:1003200001C0880F6A95EAF78095822382BB089501
:10033000FA01813041F028F0823039F0833039F011
:10034000089589B305C086B303C083B301C080B3E9
:1003500090E002C0959587956A95E2F78170808359
:10036000089541E067E083E00E949E0041E066E07E
:1003700083E00E949E0041E065E083E00E949E00D1
:1003800041E063E083E00E949E0040E065E082E09F
:100390000E949E0040E064E082E00E949E0040E0F7
:1003A00063E082E00E949E0040E062E082E00E9402
:1003B0009E0065E082E00E94030164E082E00E940A
:1003C000030163E082E00E94030162E082E00E9498
:1003D000030141E067E083E00E94330141E066E011
:1003E00083E00E94330141E065E083E00E94330135
:1003F00041E063E083E00C943301AF92BF92CF926F
:10040000DF92EF92FF920F931F93CF93DF931F9290
:10041000CDB7DEB71982C12CD12CA12CB12C17E09D
:100420001430E9F1133011F4AA24A39440E0612FB1
:1004300083E00E943301760127E0E21AF108C70148
:100440008A199109FC01EB59FF4F7F0105E0AE01CC
:100450004F5F5F4F602F82E00E9498018981811178
:1004600013C0F701B7808981811108C0AE014F5FC9
:100470005F4F602F82E00E949801F5CF8FE39CE9E7
:100480000197F1F700C00000015094E0E90EF11C63
:100490000130E9F641E0612F83E00E943301115001
:1004A000EFEFCE1ADE0A123009F0BACF8B2D0F9083
:1004B000DF91CF911F910F91FF90EF90DF90CF9040
:1004C000BF90AF900895CF93C82F40E063E080E0E5
:1004D0000E94330140E062E080E00E943301C4FBEF
:1004E000442740F960E081E00E943301C5FB4427C6
:1004F00040F961E081E00E943301C6FB442740F9E6
:1005000062E081E00E9433014C2F441F4427441FC6
:1005100064E081E00E94330141E062E080E00E94FB
:10052000330185E08A95F1F7000040E062E080E069
:100530000E94330195E09A95F1F700004C2F41702D
:1005400060E081E00E943301C1FB442740F961E093
:1005500081E00E943301C2FB442740F962E081E060
:100560000E943301C3FB442740F964E081E00E940C
:10057000330141E062E080E00E94330185E08A952A
:10058000F1F7000040E062E080E00E94330195E076
:100590009A95F1F7000087EC90E00197F1F700C021
:1005A0000000CF910895CF93C82F41E063E080E031
:1005B0000E94330140E062E080E00E943301C4FB0E
:1005C000442740F960E081E00E943301C5FB4427E5
:1005D00040F961E081E00E943301C6FB442740F905
:1005E00062E081E00E9433014C2F441F4427441FE6
:1005F00064E081E00E94330141E062E080E00E941B
:10060000330185E08A95F1F7000040E062E080E088
:100610000E94330195E09A95F1F700004C2F41704C
:1006200060E081E00E943301C1FB442740F961E0B2
:1006300081E00E943301C2FB442740F962E081E07F
:100640000E943301C3FB442740F964E081E00E942B
:10065000330141E062E080E00E94330185E08A9549
:10066000F1F7000040E062E080E00E94330195E095
:100670009A95F1F7000087EC90E00197F1F700C040
:100680000000CF9108950F931F93CF93DF9300D075
:1006900000D0CDB7DEB700916100109162002091CB
:1006A00063003091640009831A832B833C83FE012D
:1006B000E80FF11D8181860F0F900F900F900F9022
:1006C000DF91CF911F910F910C946302CF93DF9331
:1006D000EC018991882319F00E94D302FACFDF91AF
:1006E000CF91089581E00E9463028FE39CE9019716
:1006F000F1F700C000000895811104C080916000EE
:100700008B7F05C0813029F48091600084608093E4
:100710006000809160000C946302811104C080919C
:1007200060008D7F11C0813021F480916000826073
:100730000BC0823021F480916000816005C083305D
:1007400029F4809160008E7F80936000809160002A
:100750000C9463028BB38C608BBB8AB38C608ABBB6
:1007600088B3876188BB87B3876187BB41E063E05B
:1007700080E00E949E0041E062E080E00E949E00D6
:1007800041E060E081E00E949E0041E061E081E0A4
:100790000E949E0041E062E081E00E949E0041E0F4
:1007A00064E081E00E949E0082E00E94630288E291
:1007B0000E94630280E00E948D0383E00E948D030B
:1007C00081E00E947C0386E00E9463020C94720325
:1007D0004F925F926F927F928F929F92AF92BF9251
:1007E000CF92DF92EF92FF924B015C0197FF0BC01B
:1007F0008DE20E94D302B094A09490948094811CC6
:10080000911CA11CB11C61E070E080E090E03AE036
:10081000432E512C612C712C81149104A104B1043C
:10082000A9F0AAE0B0E09B01AC010E9442056B0177
:100830007C01C501B401A30192010E941D056C0D4C
:100840007D1D8E1D9F1D49015A01E6CF2AE0C22E53
:10085000D12CE12CF12C62307105810591056CF0F1
:10086000A70196010E941D0549015A0180E3860FE8
:100870000E94D302B401C501EECFFF90EF90DF904C
:10088000CF90BF90AF909F908F907F906F905F9030
:100890004F9008950E9449000E94AA0381E00E949F
:1008A00009050E94B1010E947E0085E790E00E9448
:1008B000660360E082E00E9443038AE890E00E94C1
:1008C00066030E94FD01C82F8823D9F30E9490007F
:1008D000C13329F40E9472030E947604F2CFC2331E
:1008E00081F70E9472030E94C604EBCFCF93DF937F
:1008F00000D0CDB7DEB781E00E9453001A82198282
:1009000084EFE82EFF24F394CE0101960E9470003C
:1009100029813A812E9DC0012F9D900D3E9D900D05
:100920001124892F8695869589831A8287E990E01C
:100930000E94660369817A8180E090E00E94E8036A
:100940008FED0E94D30283E40E94D30260E083E033
:100950000E9443038DE990E00E9466030E94FD011E
:10096000882321F00E94900010E001C011E02FEFD9
:1009700083ED90E3215080409040E1F700C00000FB
:100980000E9472031111C0CF0E944A04CF93DF93DB
:1009900000D0CDB7DEB780E00E9453001A821982E2
:1009A000CE0101960E94700082EB90E00E946603E7
:1009B00089819A81C39730F081E00E94130587EB0B
:1009C00090E005C081E00E9418058CEB90E00E9449
:1009D000660360E083E00E9443038DE990E00E949B
:1009E00066030E94FD01882321F00E94900010E020
:1009F00001C011E02FEF83ED90E321508040904043
:100A0000E1F700C000000E9472031111C9CF0E94DB
:100A10004A0441E067E082E00E949E0040E067E017
:100A200082E00C94330141E067E082E00C943301F2
:100A300040E067E082E00C943301052E97FB1EF442
:100A400000940E94340557FD07D00E944D0507FC15
:100A500003D04EF40C943405509540953095219573
:100A60003F4F4F4F5F4F08959095809570956195DA
:100A70007F4F8F4F9F4F0895EE0FFF1F0590F4910A
:100A8000E02D09940E946F05A59F900DB49F900DD5
:100A9000A49F800D911D11240895A1E21A2EAA1B76
:100AA000BB1BFD010DC0AA1FBB1FEE1FFF1FA2171E
:100AB000B307E407F50720F0A21BB30BE40BF50B1B
:100AC000661F771F881F991F1A9469F760957095A4
:100AD000809590959B01AC01BD01CF010895A29F27
:100AE000B001B39FC001A39F700D811D1124911D02
:100AF000B29F700D811D1124911D0895F894FFCFB0
:100B00000880C094D43738393A3435363A313233E4
:100B10003A63303D3A312E54656D7065726174757B
:100B200072652053656E736F7200322E4C445220F2
:100B300053656E736F720054656D703D00486F6C45
:100B40006420616E79206B657920746F2062616327
:100B50006B004C44523D004461726B004C69676805
:020B600074001F
:00000001FF
